{
  "contractName": "Bank",
  "abi": [
    {
      "inputs": [
        {
          "internalType": "contract IERC20",
          "name": "token",
          "type": "address"
        },
        {
          "internalType": "uint256",
          "name": "_pledgeAmount",
          "type": "uint256"
        },
        {
          "internalType": "uint256",
          "name": "_rewardTime",
          "type": "uint256"
        }
      ],
      "stateMutability": "nonpayable",
      "type": "constructor"
    },
    {
      "anonymous": false,
      "inputs": [
        {
          "indexed": true,
          "internalType": "address",
          "name": "previousOwner",
          "type": "address"
        },
        {
          "indexed": true,
          "internalType": "address",
          "name": "newOwner",
          "type": "address"
        }
      ],
      "name": "OwnershipTransferred",
      "type": "event"
    },
    {
      "anonymous": false,
      "inputs": [
        {
          "indexed": false,
          "internalType": "address",
          "name": "staker",
          "type": "address"
        },
        {
          "indexed": false,
          "internalType": "uint256",
          "name": "value",
          "type": "uint256"
        }
      ],
      "name": "depositSuccesful",
      "type": "event"
    },
    {
      "anonymous": false,
      "inputs": [
        {
          "indexed": false,
          "internalType": "uint256",
          "name": "pledgeAmount",
          "type": "uint256"
        },
        {
          "indexed": false,
          "internalType": "uint256",
          "name": "savingsStart",
          "type": "uint256"
        }
      ],
      "name": "savingsStarted",
      "type": "event"
    },
    {
      "anonymous": false,
      "inputs": [
        {
          "indexed": false,
          "internalType": "address",
          "name": "withdrawAddress",
          "type": "address"
        },
        {
          "indexed": false,
          "internalType": "uint256",
          "name": "totalPayout",
          "type": "uint256"
        }
      ],
      "name": "stakeWithdrawn",
      "type": "event"
    },
    {
      "inputs": [],
      "name": "decimals",
      "outputs": [
        {
          "internalType": "uint256",
          "name": "",
          "type": "uint256"
        }
      ],
      "stateMutability": "view",
      "type": "function"
    },
    {
      "inputs": [],
      "name": "deploymentTime",
      "outputs": [
        {
          "internalType": "uint256",
          "name": "",
          "type": "uint256"
        }
      ],
      "stateMutability": "view",
      "type": "function"
    },
    {
      "inputs": [],
      "name": "owner",
      "outputs": [
        {
          "internalType": "address",
          "name": "",
          "type": "address"
        }
      ],
      "stateMutability": "view",
      "type": "function"
    },
    {
      "inputs": [],
      "name": "pledgeAmount",
      "outputs": [
        {
          "internalType": "uint256",
          "name": "",
          "type": "uint256"
        }
      ],
      "stateMutability": "view",
      "type": "function"
    },
    {
      "inputs": [],
      "name": "renounceOwnership",
      "outputs": [],
      "stateMutability": "nonpayable",
      "type": "function"
    },
    {
      "inputs": [],
      "name": "rewardDeposited",
      "outputs": [
        {
          "internalType": "bool",
          "name": "",
          "type": "bool"
        }
      ],
      "stateMutability": "view",
      "type": "function"
    },
    {
      "inputs": [],
      "name": "rewardTime",
      "outputs": [
        {
          "internalType": "uint256",
          "name": "",
          "type": "uint256"
        }
      ],
      "stateMutability": "view",
      "type": "function"
    },
    {
      "inputs": [],
      "name": "savingsStartTime",
      "outputs": [
        {
          "internalType": "uint256",
          "name": "",
          "type": "uint256"
        }
      ],
      "stateMutability": "view",
      "type": "function"
    },
    {
      "inputs": [
        {
          "internalType": "address",
          "name": "newOwner",
          "type": "address"
        }
      ],
      "name": "transferOwnership",
      "outputs": [],
      "stateMutability": "nonpayable",
      "type": "function"
    },
    {
      "inputs": [
        {
          "internalType": "uint256",
          "name": "_value",
          "type": "uint256"
        }
      ],
      "name": "savingsStart",
      "outputs": [],
      "stateMutability": "nonpayable",
      "type": "function"
    },
    {
      "inputs": [
        {
          "internalType": "uint256",
          "name": "_depositAmount",
          "type": "uint256"
        }
      ],
      "name": "depositTokens",
      "outputs": [],
      "stateMutability": "nonpayable",
      "type": "function"
    },
    {
      "inputs": [],
      "name": "withdrawTokens",
      "outputs": [],
      "stateMutability": "payable",
      "type": "function"
    },
    {
      "inputs": [],
      "name": "getTotalStake",
      "outputs": [
        {
          "internalType": "uint256",
          "name": "totalStake",
          "type": "uint256"
        }
      ],
      "stateMutability": "view",
      "type": "function"
    },
    {
      "inputs": [],
      "name": "getRewards",
      "outputs": [
        {
          "internalType": "uint256",
          "name": "R1",
          "type": "uint256"
        },
        {
          "internalType": "uint256",
          "name": "R2",
          "type": "uint256"
        },
        {
          "internalType": "uint256",
          "name": "R3",
          "type": "uint256"
        }
      ],
      "stateMutability": "view",
      "type": "function"
    },
    {
      "inputs": [
        {
          "internalType": "address",
          "name": "staker",
          "type": "address"
        }
      ],
      "name": "checkIfStaker",
      "outputs": [
        {
          "internalType": "bool",
          "name": "",
          "type": "bool"
        }
      ],
      "stateMutability": "view",
      "type": "function"
    }
  ],
  "bytecode": "0x6080604052670de0b6b3a76400006002556000600c60006101000a81548160ff0219169083151502179055503480156200003857600080fd5b50604051620021eb380380620021eb83398181016040528101906200005e9190620001e6565b6200007e62000072620000ec60201b60201c565b620000f460201b60201c565b82600160006101000a81548173ffffffffffffffffffffffffffffffffffffffff021916908373ffffffffffffffffffffffffffffffffffffffff16021790555060025482620000cf91906200023c565b600381905550806004819055504260058190555050505062000352565b600033905090565b60008060009054906101000a900473ffffffffffffffffffffffffffffffffffffffff169050816000806101000a81548173ffffffffffffffffffffffffffffffffffffffff021916908373ffffffffffffffffffffffffffffffffffffffff1602179055508173ffffffffffffffffffffffffffffffffffffffff168173ffffffffffffffffffffffffffffffffffffffff167f8be0079c531659141344cd1fd0a4f28419497f9722a3daafe3b4186f6b6457e060405160405180910390a35050565b600081519050620001c9816200031e565b92915050565b600081519050620001e08162000338565b92915050565b600080600060608486031215620001fc57600080fd5b60006200020c86828701620001b8565b93505060206200021f86828701620001cf565b92505060406200023286828701620001cf565b9150509250925092565b60006200024982620002e5565b91506200025683620002e5565b9250817fffffffffffffffffffffffffffffffffffffffffffffffffffffffffffffffff0483118215151615620002925762000291620002ef565b5b828202905092915050565b6000620002aa82620002c5565b9050919050565b6000620002be826200029d565b9050919050565b600073ffffffffffffffffffffffffffffffffffffffff82169050919050565b6000819050919050565b7f4e487b7100000000000000000000000000000000000000000000000000000000600052601160045260246000fd5b6200032981620002b1565b81146200033557600080fd5b50565b6200034381620002e5565b81146200034f57600080fd5b50565b611e8980620003626000396000f3fe6080604052600436106100e85760003560e01c80638d8f2adb1161008a578063a53f7de011610059578063a53f7de014610291578063dd49756e146102ce578063ecda10f5146102f7578063f2fde38b14610322576100e8565b80638d8f2adb146102065780638da5cb5b1461021057806391b66fd51461023b57806393d44c4714610266576100e8565b8063359116a3116100c6578063359116a31461016e578063517b9b5514610199578063715018a6146101c45780637bc74225146101db576100e8565b806302e77970146100ed5780630572b0cc14610116578063313ce56714610143575b600080fd5b3480156100f957600080fd5b50610114600480360381019061010f91906119cc565b61034b565b005b34801561012257600080fd5b5061012b61056e565b60405161013a93929190611c0b565b60405180910390f35b34801561014f57600080fd5b506101586105ae565b6040516101659190611bc7565b60405180910390f35b34801561017a57600080fd5b506101836105b4565b6040516101909190611bc7565b60405180910390f35b3480156101a557600080fd5b506101ae6105ba565b6040516101bb9190611bc7565b60405180910390f35b3480156101d057600080fd5b506101d96105c0565b005b3480156101e757600080fd5b506101f0610648565b6040516101fd9190611bc7565b60405180910390f35b61020e61065f565b005b34801561021c57600080fd5b50610225610830565b6040516102329190611af1565b60405180910390f35b34801561024757600080fd5b50610250610859565b60405161025d9190611bc7565b60405180910390f35b34801561027257600080fd5b5061027b61085f565b6040516102889190611b6c565b60405180910390f35b34801561029d57600080fd5b506102b860048036038101906102b3919061197a565b610872565b6040516102c59190611b6c565b60405180910390f35b3480156102da57600080fd5b506102f560048036038101906102f091906119cc565b6108d0565b005b34801561030357600080fd5b5061030c610abf565b6040516103199190611bc7565b60405180910390f35b34801561032e57600080fd5b506103496004803603810190610344919061197a565b610ac5565b005b610353610bbd565b73ffffffffffffffffffffffffffffffffffffffff16610371610830565b73ffffffffffffffffffffffffffffffffffffffff16146103c7576040517f08c379a00000000000000000000000000000000000000000000000000000000081526004016103be90611ba7565b60405180910390fd5b60001515600c60009054906101000a900460ff161515146103e757600080fd5b60035481146103f557600080fd5b600160009054906101000a900473ffffffffffffffffffffffffffffffffffffffff1673ffffffffffffffffffffffffffffffffffffffff166323b872dd33306003546040518463ffffffff1660e01b815260040161045693929190611b0c565b602060405180830381600087803b15801561047057600080fd5b505af1158015610484573d6000803e3d6000fd5b505050506040513d601f19601f820116820180604052508101906104a891906119a3565b506001600c60006101000a81548160ff021916908315150217905550601460646003546104d59190611ca9565b6104df9190611cda565b600681905550601e60646003546104f69190611ca9565b6105009190611cda565b600781905550603260646003546105179190611ca9565b6105219190611cda565b60088190555042600b819055507f91095aacde4201bfb26537cd61ad6f06d12134db38e390db76ac83d4bf786eaf600354600b54604051610563929190611be2565b60405180910390a150565b60008060006002546006546105839190611ca9565b92506002546007546105959190611ca9565b91506002546008546105a79190611ca9565b9050909192565b60025481565b600b5481565b60035481565b6105c8610bbd565b73ffffffffffffffffffffffffffffffffffffffff166105e6610830565b73ffffffffffffffffffffffffffffffffffffffff161461063c576040517f08c379a000000000000000000000000000000000000000000000000000000000815260040161063390611ba7565b60405180910390fd5b6106466000610bc5565b565b600060025460095461065a9190611ca9565b905090565b60011515600c60009054906101000a900460ff1615151461067f57600080fd5b600454600261068e9190611cda565b600b5461069b9190611c53565b4210156106a757600080fd5b60045460026106b69190611cda565b600b546106c39190611c53565b421180156106eb575060045460036106db9190611cda565b600b546106e89190611c53565b42105b156106f9576106f8610c89565b5b60045460036107089190611cda565b600b546107159190611c53565b4211801561073d5750600454600461072d9190611cda565b600b5461073a9190611c53565b42105b1561074b5761074a610f46565b5b610753610830565b73ffffffffffffffffffffffffffffffffffffffff163373ffffffffffffffffffffffffffffffffffffffff161480156107a7575060045460046107979190611cda565b600b546107a49190611c53565b42115b80156107b557506000600a54145b156107c3576107c261124e565b5b6107cb610830565b73ffffffffffffffffffffffffffffffffffffffff163373ffffffffffffffffffffffffffffffffffffffff1614158015610820575060045460046108109190611cda565b600b5461081d9190611c53565b42115b1561082e5761082d6115a0565b5b565b60008060009054906101000a900473ffffffffffffffffffffffffffffffffffffffff16905090565b60045481565b600c60009054906101000a900460ff1681565b600080600d60008473ffffffffffffffffffffffffffffffffffffffff1673ffffffffffffffffffffffffffffffffffffffff16815260200190815260200160002090508060010160009054906101000a900460ff16915050919050565b60011515600c60009054906101000a900460ff161515146108f057600080fd5b600c60009054906101000a900460ff16801561091a5750600454600b546109179190611c53565b42105b61092357600080fd5b6000819050600254816109369190611cda565b9050600160009054906101000a900473ffffffffffffffffffffffffffffffffffffffff1673ffffffffffffffffffffffffffffffffffffffff166323b872dd3330846040518463ffffffff1660e01b815260040161099793929190611b0c565b602060405180830381600087803b1580156109b157600080fd5b505af11580156109c5573d6000803e3d6000fd5b505050506040513d601f19601f820116820180604052508101906109e991906119a3565b50806009546109f89190611c53565b6009819055506000600d60003373ffffffffffffffffffffffffffffffffffffffff1673ffffffffffffffffffffffffffffffffffffffff168152602001908152602001600020905081816000018190555060018160010160006101000a81548160ff0219169083151502179055506001600a6000828254610a7a9190611c53565b925050819055507f61e5b942f409d18b83334168beb6ab8131cdd8b32d98b26424f8bf7689b86e803383604051610ab2929190611b43565b60405180910390a1505050565b60055481565b610acd610bbd565b73ffffffffffffffffffffffffffffffffffffffff16610aeb610830565b73ffffffffffffffffffffffffffffffffffffffff1614610b41576040517f08c379a0000000000000000000000000000000000000000000000000000000008152600401610b3890611ba7565b60405180910390fd5b600073ffffffffffffffffffffffffffffffffffffffff168173ffffffffffffffffffffffffffffffffffffffff161415610bb1576040517f08c379a0000000000000000000000000000000000000000000000000000000008152600401610ba890611b87565b60405180910390fd5b610bba81610bc5565b50565b600033905090565b60008060009054906101000a900473ffffffffffffffffffffffffffffffffffffffff169050816000806101000a81548173ffffffffffffffffffffffffffffffffffffffff021916908373ffffffffffffffffffffffffffffffffffffffff1602179055508173ffffffffffffffffffffffffffffffffffffffff168173ffffffffffffffffffffffffffffffffffffffff167f8be0079c531659141344cd1fd0a4f28419497f9722a3daafe3b4186f6b6457e060405160405180910390a35050565b60011515600c60009054906101000a900460ff16151514610ca957600080fd5b60003390506000600d60008373ffffffffffffffffffffffffffffffffffffffff1673ffffffffffffffffffffffffffffffffffffffff168152602001908152602001600020905060008160000154905060006064600954610d0b9190611ca9565b82610d169190611ca9565b90506000816064600654610d2a9190611ca9565b610d349190611cda565b905060008382610d449190611c53565b9050600160009054906101000a900473ffffffffffffffffffffffffffffffffffffffff1673ffffffffffffffffffffffffffffffffffffffff1663095ea7b387836040518363ffffffff1660e01b8152600401610da3929190611b43565b602060405180830381600087803b158015610dbd57600080fd5b505af1158015610dd1573d6000803e3d6000fd5b505050506040513d601f19601f82011682018060405250810190610df591906119a3565b50600160009054906101000a900473ffffffffffffffffffffffffffffffffffffffff1673ffffffffffffffffffffffffffffffffffffffff1663a9059cbb87836040518363ffffffff1660e01b8152600401610e53929190611b43565b602060405180830381600087803b158015610e6d57600080fd5b505af1158015610e81573d6000803e3d6000fd5b505050506040513d601f19601f82011682018060405250810190610ea591906119a3565b5060008560010160006101000a81548160ff0219169083151502179055506001600a6000828254610ed69190611d34565b9250508190555083600954610eeb9190611d34565b60098190555081600654610eff9190611d34565b6006819055507fc2b079658b985422be9c8e66de4e1156338c03c70db53027aeb168b10371d2248682604051610f36929190611b43565b60405180910390a1505050505050565b60011515600c60009054906101000a900460ff16151514610f6657600080fd5b60003390506000600d60008373ffffffffffffffffffffffffffffffffffffffff1673ffffffffffffffffffffffffffffffffffffffff168152602001908152602001600020905060008160000154905060006064600954610fc89190611ca9565b82610fd39190611ca9565b90506000816064600754600654610fea9190611c53565b610ff49190611ca9565b610ffe9190611cda565b90506000838261100e9190611c53565b9050600160009054906101000a900473ffffffffffffffffffffffffffffffffffffffff1673ffffffffffffffffffffffffffffffffffffffff1663095ea7b387836040518363ffffffff1660e01b815260040161106d929190611b43565b602060405180830381600087803b15801561108757600080fd5b505af115801561109b573d6000803e3d6000fd5b505050506040513d601f19601f820116820180604052508101906110bf91906119a3565b50600160009054906101000a900473ffffffffffffffffffffffffffffffffffffffff1673ffffffffffffffffffffffffffffffffffffffff1663a9059cbb87836040518363ffffffff1660e01b815260040161111d929190611b43565b602060405180830381600087803b15801561113757600080fd5b505af115801561114b573d6000803e3d6000fd5b505050506040513d601f19601f8201168201806040525081019061116f91906119a3565b5060008560010160006101000a81548160ff0219169083151502179055506001600a60008282546111a09190611d34565b92505081905550836009546111b59190611d34565b60098190555060065482116111d957816006546111d29190611d34565b6006819055505b60065482111561120d57600654826111f19190611d34565b6007546111fe9190611d34565b60078190555060006006819055505b7fc2b079658b985422be9c8e66de4e1156338c03c70db53027aeb168b10371d224868260405161123e929190611b43565b60405180910390a1505050505050565b60011515600c60009054906101000a900460ff1615151461126e57600080fd5b611276610bbd565b73ffffffffffffffffffffffffffffffffffffffff16611294610830565b73ffffffffffffffffffffffffffffffffffffffff16146112ea576040517f08c379a00000000000000000000000000000000000000000000000000000000081526004016112e190611ba7565b60405180910390fd5b6000600160009054906101000a900473ffffffffffffffffffffffffffffffffffffffff1673ffffffffffffffffffffffffffffffffffffffff166370a08231306040518263ffffffff1660e01b81526004016113479190611af1565b60206040518083038186803b15801561135f57600080fd5b505afa158015611373573d6000803e3d6000fd5b505050506040513d601f19601f8201168201806040525081019061139791906119f5565b9050600160009054906101000a900473ffffffffffffffffffffffffffffffffffffffff1673ffffffffffffffffffffffffffffffffffffffff1663095ea7b36113df610830565b836040518363ffffffff1660e01b81526004016113fd929190611b43565b602060405180830381600087803b15801561141757600080fd5b505af115801561142b573d6000803e3d6000fd5b505050506040513d601f19601f8201168201806040525081019061144f91906119a3565b50600160009054906101000a900473ffffffffffffffffffffffffffffffffffffffff1673ffffffffffffffffffffffffffffffffffffffff1663a9059cbb611496610830565b836040518363ffffffff1660e01b81526004016114b4929190611b43565b602060405180830381600087803b1580156114ce57600080fd5b505af11580156114e2573d6000803e3d6000fd5b505050506040513d601f19601f8201168201806040525081019061150691906119a3565b506000600c60006101000a81548160ff0219169083151502179055506000600b819055506000600681905550600060078190555060006008819055506000600c60006101000a81548160ff0219169083151502179055507fc2b079658b985422be9c8e66de4e1156338c03c70db53027aeb168b10371d224611586610830565b82604051611595929190611b43565b60405180910390a150565b60011515600c60009054906101000a900460ff161515146115c057600080fd5b60003390506000600d60008373ffffffffffffffffffffffffffffffffffffffff1673ffffffffffffffffffffffffffffffffffffffff1681526020019081526020016000209050600081600001549050600060646009546116229190611ca9565b8261162d9190611ca9565b905060008160646008546007546006546116479190611c53565b6116519190611c53565b61165b9190611ca9565b6116659190611cda565b9050600083826116759190611c53565b9050600160009054906101000a900473ffffffffffffffffffffffffffffffffffffffff1673ffffffffffffffffffffffffffffffffffffffff1663095ea7b387836040518363ffffffff1660e01b81526004016116d4929190611b43565b602060405180830381600087803b1580156116ee57600080fd5b505af1158015611702573d6000803e3d6000fd5b505050506040513d601f19601f8201168201806040525081019061172691906119a3565b50600160009054906101000a900473ffffffffffffffffffffffffffffffffffffffff1673ffffffffffffffffffffffffffffffffffffffff1663a9059cbb87836040518363ffffffff1660e01b8152600401611784929190611b43565b602060405180830381600087803b15801561179e57600080fd5b505af11580156117b2573d6000803e3d6000fd5b505050506040513d601f19601f820116820180604052508101906117d691906119a3565b5060008560010160006101000a81548160ff0219169083151502179055506001600a60008282546118079190611d34565b925050819055508360095461181c9190611d34565b600981905550600654821015611841578160065461183a9190611d34565b6006819055505b60065482118015611860575060065460075461185d9190611c53565b82105b1561188f57600654826118739190611d34565b6007546118809190611d34565b60078190555060006006819055505b60075460065461189f9190611c53565b8211156118e5576007546006546118b69190611c53565b826118c19190611d34565b6008546118ce9190611d34565b600881905550600060068190555060006007819055505b7fc2b079658b985422be9c8e66de4e1156338c03c70db53027aeb168b10371d2248682604051611916929190611b43565b60405180910390a1505050505050565b60008135905061193581611e0e565b92915050565b60008151905061194a81611e25565b92915050565b60008135905061195f81611e3c565b92915050565b60008151905061197481611e3c565b92915050565b60006020828403121561198c57600080fd5b600061199a84828501611926565b91505092915050565b6000602082840312156119b557600080fd5b60006119c38482850161193b565b91505092915050565b6000602082840312156119de57600080fd5b60006119ec84828501611950565b91505092915050565b600060208284031215611a0757600080fd5b6000611a1584828501611965565b91505092915050565b611a2781611d68565b82525050565b611a3681611d7a565b82525050565b6000611a49602683611c42565b91507f4f776e61626c653a206e6577206f776e657220697320746865207a65726f206160008301527f64647265737300000000000000000000000000000000000000000000000000006020830152604082019050919050565b6000611aaf602083611c42565b91507f4f776e61626c653a2063616c6c6572206973206e6f7420746865206f776e65726000830152602082019050919050565b611aeb81611da6565b82525050565b6000602082019050611b066000830184611a1e565b92915050565b6000606082019050611b216000830186611a1e565b611b2e6020830185611a1e565b611b3b6040830184611ae2565b949350505050565b6000604082019050611b586000830185611a1e565b611b656020830184611ae2565b9392505050565b6000602082019050611b816000830184611a2d565b92915050565b60006020820190508181036000830152611ba081611a3c565b9050919050565b60006020820190508181036000830152611bc081611aa2565b9050919050565b6000602082019050611bdc6000830184611ae2565b92915050565b6000604082019050611bf76000830185611ae2565b611c046020830184611ae2565b9392505050565b6000606082019050611c206000830186611ae2565b611c2d6020830185611ae2565b611c3a6040830184611ae2565b949350505050565b600082825260208201905092915050565b6000611c5e82611da6565b9150611c6983611da6565b9250827fffffffffffffffffffffffffffffffffffffffffffffffffffffffffffffffff03821115611c9e57611c9d611db0565b5b828201905092915050565b6000611cb482611da6565b9150611cbf83611da6565b925082611ccf57611cce611ddf565b5b828204905092915050565b6000611ce582611da6565b9150611cf083611da6565b9250817fffffffffffffffffffffffffffffffffffffffffffffffffffffffffffffffff0483118215151615611d2957611d28611db0565b5b828202905092915050565b6000611d3f82611da6565b9150611d4a83611da6565b925082821015611d5d57611d5c611db0565b5b828203905092915050565b6000611d7382611d86565b9050919050565b60008115159050919050565b600073ffffffffffffffffffffffffffffffffffffffff82169050919050565b6000819050919050565b7f4e487b7100000000000000000000000000000000000000000000000000000000600052601160045260246000fd5b7f4e487b7100000000000000000000000000000000000000000000000000000000600052601260045260246000fd5b611e1781611d68565b8114611e2257600080fd5b50565b611e2e81611d7a565b8114611e3957600080fd5b50565b611e4581611da6565b8114611e5057600080fd5b5056fea26469706673582212202ad1e4e14a4d57d3c7b820bbb01fc50f618944a9bf913cbd4f3c6e31885fc2f264736f6c63430008000033",
  "immutableReferences": {},
  "source": "//SPDX-License-Identifier: Unlicense\r\npragma solidity 0.8.0;\r\n\r\n\r\nimport \"@openzeppelin/contracts/token/ERC20/ERC20.sol\";\r\nimport \"@openzeppelin/contracts/utils/Context.sol\";\r\nimport \"@openzeppelin/contracts/token/ERC20/IERC20.sol\";\r\nimport \"@openzeppelin/contracts/access/Ownable.sol\";\r\n\r\n//@dev A standard ERC20 token\r\n\r\ncontract ATT is Context, ERC20 {\r\n    constructor() ERC20(\"ATRAC TEST TOKEN\", \"ATT\") {\r\n        _mint(msg.sender, 10000 * 10 ** 18);         //adjust the first number to adjust totalSupply\r\n    }\r\n\r\n}\r\n\r\n//@author Danilo Pavicevic\r\n//@title TokenBank contract\r\n\r\ncontract Bank is Ownable {\r\n    \r\n    //@dev setting up needed variables for the contract\r\n    //IERC20 _token represents the token that the Bank contract will accept\r\n\r\n    IERC20 private _token;\r\n    uint256 public decimals = 10 ** 18;\r\n    uint256 public pledgeAmount;\r\n    uint256 public rewardTime;\r\n    uint256 public deploymentTime;\r\n\r\n\r\n    uint256 private reward1;\r\n    uint256 private reward2;\r\n    uint256 private reward3;\r\n    uint256 private totalStakePool;\r\n    uint256 private totalStakers;\r\n    uint256 public savingsStartTime;   \r\n    bool public rewardDeposited = false ;\r\n\r\n    \r\n\r\n    //@dev struct for keeping track of user deposits,\r\n    //@and if they are currently active\r\n\r\n    struct depositStruct {\r\n        uint256 value;\r\n        bool isValue;\r\n    }\r\n    \r\n    \r\n    mapping (address => depositStruct) deposits;\r\n\r\n    //@dev defining events to be emitted upon succesful interaction\r\n\r\n    event savingsStarted (uint256 pledgeAmount, uint256 savingsStart);\r\n    event depositSuccesful (address staker, uint256 value);\r\n    event stakeWithdrawn (address withdrawAddress, uint256 totalPayout);\r\n\r\n    //@dev a modifer to ensure proper enforcment of staking cycles\r\n    //if this modifier check fails there is no active staking cycle\r\n\r\n    modifier operational {\r\n        require (rewardDeposited == true);\r\n        _;\r\n    }\r\n    \r\n    // @dev constructor sets token that can be received,\r\n    // the expect argument is token contract address\r\n\r\n    //@param token - expects a token contract address\r\n    //@param _pledgeAmount - the amount bank owner pledges to deposit to the reward pool ex(1200 tokens)\r\n    //@param _rewardTime - a time period used for calculating rewards, input in seconds\r\n\r\n    //@dev This contract is compatable with any token\r\n    //@dev all that is needed is the token address\r\n     \r\n    constructor (IERC20 token, uint256 _pledgeAmount, uint256 _rewardTime)  {\r\n        _token = token;\r\n        pledgeAmount = _pledgeAmount * decimals;\r\n        rewardTime = _rewardTime;\r\n        deploymentTime = block.timestamp;\r\n    }\r\n\r\n    //@dev a function that only the deployer of the contract can execute\r\n    // owner needs to input the amount pledged to be deposited\r\n    // after the reward is deposited the staking cycle starts\r\n    // and reward pools are calculated\r\n\r\n    function savingsStart (uint256 _value) public onlyOwner {\r\n        require(rewardDeposited == false);\r\n        require(_value  == pledgeAmount);\r\n        _token.transferFrom(msg.sender,address(this), pledgeAmount);\r\n        rewardDeposited = true;\r\n        reward1 = pledgeAmount / 100 * 20 ;\r\n        reward2  = pledgeAmount / 100 * 30;\r\n        reward3 = pledgeAmount / 100 * 50;\r\n        savingsStartTime = block.timestamp;\r\n\r\n        emit savingsStarted(pledgeAmount, savingsStartTime);\r\n\r\n    }\r\n\r\n    //@dev a function for stakers to deposit their tokens\r\n    // this fn handles all user data with usage of struct and\r\n    // mappings, also handles token transfer\r\n\r\n    function depositTokens(uint256 _depositAmount) public operational {\r\n        require(rewardDeposited && block.timestamp < (savingsStartTime + rewardTime));\r\n        uint256 depositAmount = _depositAmount;\r\n        depositAmount = depositAmount * decimals;\r\n        _token.transferFrom(msg.sender, address(this), depositAmount);\r\n        totalStakePool = totalStakePool + depositAmount;\r\n        depositStruct storage d = deposits[msg.sender];\r\n        d.value = depositAmount;\r\n        d.isValue = true;\r\n        totalStakers += 1;\r\n\r\n        emit depositSuccesful(msg.sender, depositAmount);\r\n    }\r\n\r\n    //@dev a function handling all token withdrawals,\r\n    // depending on the time passed and caller \r\n    // it calls the responding withdrawal function\r\n\r\n    function withdrawTokens () public operational payable{\r\n        if (block.timestamp < savingsStartTime + 2 * rewardTime) revert();\r\n        if(block.timestamp > savingsStartTime + 2*rewardTime  && block.timestamp < savingsStartTime + 3*rewardTime ) firstWithdrawal();\r\n        if(block.timestamp > savingsStartTime + 3*rewardTime  && block.timestamp < savingsStartTime + 4*rewardTime ) secondWithdrawal();\r\n        if(msg.sender == owner() && block.timestamp > savingsStartTime + (4 * rewardTime) && totalStakers == 0 ) bankWithdrawal();\r\n        if(msg.sender != owner() && block.timestamp > savingsStartTime + 4*rewardTime) thirdWithdrawal();\r\n        \r\n    }\r\n\r\n    //@dev the first withdrawal function for stakers\r\n\r\n    function firstWithdrawal() private operational  {\r\n            address staker = msg.sender;\r\n            depositStruct storage d = deposits[staker];\r\n            uint256 depositedValue = d.value;\r\n            uint256 awardProportions = depositedValue / (totalStakePool  / 100 ) ;\r\n            uint256 totalAward = (reward1 / 100) * awardProportions;\r\n            uint256 payoutValue = totalAward + depositedValue;\r\n            _token.approve(staker, payoutValue);\r\n            _token.transfer(staker, payoutValue);\r\n            d.isValue = false;\r\n            totalStakers -= 1;\r\n            totalStakePool = totalStakePool - depositedValue;\r\n            reward1 = reward1 - totalAward;\r\n\r\n            emit stakeWithdrawn(staker, payoutValue);\r\n         } \r\n\r\n    //@dev the second withdrawal function for stakers\r\n\r\n    function secondWithdrawal() private operational  {\r\n        address staker = msg.sender;\r\n        depositStruct storage d = deposits[staker];\r\n        uint256 depositedValue = d.value;\r\n        uint256 awardProportions =depositedValue /  (totalStakePool / 100) ;\r\n        uint256 totalAward = ((reward1 + reward2) / 100) * awardProportions;\r\n        uint256 payoutValue = totalAward + depositedValue;\r\n        _token.approve(staker, payoutValue);\r\n        _token.transfer(staker, payoutValue);\r\n        d.isValue = false;\r\n        totalStakers -= 1;\r\n\r\n        totalStakePool = totalStakePool - depositedValue;\r\n        if (totalAward <= reward1) { //8\r\n            reward1 = reward1 - totalAward;\r\n        }\r\n        if (totalAward > reward1) {  \r\n            reward2 = reward2 - (totalAward - reward1);   //22 - (12-8)\r\n            reward1 = 0;\r\n        }\r\n        \r\n        emit stakeWithdrawn(staker, payoutValue);\r\n    \r\n    }\r\n    \r\n    //@dev the third withdrawal function for stakers\r\n\r\n    function thirdWithdrawal() private operational  {\r\n        address staker = msg.sender;\r\n        depositStruct storage d = deposits[staker];\r\n        uint256 depositedValue = d.value;\r\n        uint256 awardProportions =depositedValue / (totalStakePool / 100);\r\n        uint256 totalAward = ((reward1 + reward2 + reward3) / 100) * awardProportions;\r\n        uint256 payoutValue = totalAward + depositedValue;\r\n\r\n        _token.approve(staker, payoutValue);\r\n        _token.transfer(staker, payoutValue);\r\n\r\n        d.isValue = false;\r\n        totalStakers -= 1;\r\n\r\n        totalStakePool = totalStakePool - depositedValue;\r\n        if (totalAward < reward1) {\r\n            reward1 = reward1 - totalAward;\r\n        }\r\n        if (totalAward > reward1 && totalAward < reward2 + reward1) {\r\n            reward2 = reward2 - (totalAward - reward1);\r\n            reward1 = 0;\r\n        }\r\n        if (totalAward > reward1 + reward2) {\r\n            reward3 = reward3 - (totalAward - (reward1 + reward2));\r\n            reward1 = 0;\r\n            reward2 = 0;\r\n        }\r\n    \r\n        emit stakeWithdrawn(staker, payoutValue);\r\n\r\n    }\r\n\r\n    //@dev the bank/owner withdrawal function for claiming remaining tokens\r\n    // owner is able to call this function only when there are no more stakers\r\n    // and more then 4*T has passed\r\n\r\n    function bankWithdrawal () private operational onlyOwner  {\r\n        uint256 payout = _token.balanceOf(address(this));\r\n        _token.approve(owner(), payout );\r\n        _token.transfer(owner(), payout );\r\n        rewardDeposited = false;\r\n        savingsStartTime=0;\r\n        reward1 = 0;\r\n        reward2 = 0;\r\n        reward3 = 0;\r\n        rewardDeposited = false;\r\n\r\n        emit stakeWithdrawn(owner(), payout);\r\n    \r\n    }\r\n\r\n    //@dev custom getter functions for use by the front-end\r\n\r\n    function getTotalStake () public view returns (uint256 totalStake) {\r\n            totalStake = totalStakePool / decimals;\r\n    }\r\n    function getRewards () public view returns (uint256 R1, uint256 R2, uint256 R3) {\r\n             R1 = reward1 / (decimals);\r\n             R2 = reward2 / (decimals);\r\n             R3 = reward3 / (decimals);\r\n    }\r\n    function checkIfStaker (address staker) public view returns (bool) {\r\n        depositStruct storage d = deposits[staker];\r\n        return d.isValue;\r\n    }\r\n}\r\n",
  "sourcePath": "C:/Users/pavic/Desktop/final project/truffle/contracts/Bank.sol",
  "compiler": {
    "name": "solc",
    "version": "0.8.0+commit.c7dfd78e.Emscripten.clang"
  },
  "schemaVersion": "3.2.3",
  "updatedAt": "2022-06-16T20:58:04.721Z",
  "devdoc": {
    "kind": "dev",
    "methods": {
      "owner()": {
        "details": "Returns the address of the current owner."
      },
      "renounceOwnership()": {
        "details": "Leaves the contract without owner. It will not be possible to call `onlyOwner` functions anymore. Can only be called by the current owner. NOTE: Renouncing ownership will leave the contract without an owner, thereby removing any functionality that is only available to the owner."
      },
      "transferOwnership(address)": {
        "details": "Transfers ownership of the contract to a new account (`newOwner`). Can only be called by the current owner."
      }
    },
    "version": 1
  },
  "userdoc": {
    "kind": "user",
    "methods": {},
    "version": 1
  }
}